{
  "contractName": "MarriageCertificates",
  "abi": [
    {
      "constant": true,
      "inputs": [
        {
          "name": "",
          "type": "address"
        }
      ],
      "name": "CertificateStructs",
      "outputs": [
        {
          "name": "value",
          "type": "uint256"
        },
        {
          "name": "names",
          "type": "string"
        },
        {
          "name": "partnerDetails",
          "type": "string"
        },
        {
          "name": "blockNumber",
          "type": "uint256"
        },
        {
          "name": "message",
          "type": "string"
        },
        {
          "name": "exists",
          "type": "bool"
        }
      ],
      "payable": false,
      "stateMutability": "view",
      "type": "function"
    },
    {
      "inputs": [
        {
          "name": "_minimumCost",
          "type": "uint256"
        },
        {
          "name": "_maxHoldings",
          "type": "uint256"
        }
      ],
      "payable": false,
      "stateMutability": "nonpayable",
      "type": "constructor"
    },
    {
      "payable": true,
      "stateMutability": "payable",
      "type": "fallback"
    },
    {
      "constant": true,
      "inputs": [],
      "name": "getCertificateKeys",
      "outputs": [
        {
          "name": "",
          "type": "address[]"
        }
      ],
      "payable": false,
      "stateMutability": "view",
      "type": "function"
    },
    {
      "constant": false,
      "inputs": [
        {
          "name": "names",
          "type": "string"
        },
        {
          "name": "partnerDetails",
          "type": "string"
        },
        {
          "name": "message",
          "type": "string"
        }
      ],
      "name": "createCertificate",
      "outputs": [],
      "payable": true,
      "stateMutability": "payable",
      "type": "function"
    },
    {
      "constant": true,
      "inputs": [
        {
          "name": "key",
          "type": "address"
        }
      ],
      "name": "getCertificate",
      "outputs": [
        {
          "name": "",
          "type": "uint256"
        },
        {
          "name": "",
          "type": "string"
        },
        {
          "name": "",
          "type": "string"
        },
        {
          "name": "",
          "type": "string"
        },
        {
          "name": "",
          "type": "uint256"
        }
      ],
      "payable": false,
      "stateMutability": "view",
      "type": "function"
    },
    {
      "constant": false,
      "inputs": [],
      "name": "kill",
      "outputs": [],
      "payable": false,
      "stateMutability": "nonpayable",
      "type": "function"
    }
  ],
  "bytecode": "0x606060405266038d7ea4c680006003556706f05b59d3b20000600455341561002657600080fd5b604051604080610f9f8339810160405280805190602001909190805190602001909190505033600260006101000a81548173ffffffffffffffffffffffffffffffffffffffff021916908373ffffffffffffffffffffffffffffffffffffffff160217905550600082111561009d57816003819055505b60008111156100ae57806004819055505b5050610ee0806100bf6000396000f30060606040526004361061006d576000357c0100000000000000000000000000000000000000000000000000000000900463ffffffff16806341c0e1b51461006f57806355fd5e5714610084578063ac778b8f1461027e578063f9937c2b14610356578063fd531e93146103c0575b005b341561007a57600080fd5b610082610558565b005b341561008f57600080fd5b6100bb600480803573ffffffffffffffffffffffffffffffffffffffff169060200190919050506105eb565b60405180878152602001806020018060200186815260200180602001851515151581526020018481038452898181546001816001161561010002031660029004815260200191508054600181600116156101000203166002900480156101625780601f1061013757610100808354040283529160200191610162565b820191906000526020600020905b81548152906001019060200180831161014557829003601f168201915b50508481038352888181546001816001161561010002031660029004815260200191508054600181600116156101000203166002900480156101e55780601f106101ba576101008083540402835291602001916101e5565b820191906000526020600020905b8154815290600101906020018083116101c857829003601f168201915b50508481038252868181546001816001161561010002031660029004815260200191508054600181600116156101000203166002900480156102685780601f1061023d57610100808354040283529160200191610268565b820191906000526020600020905b81548152906001019060200180831161024b57829003601f168201915b5050995050505050505050505060405180910390f35b610354600480803590602001908201803590602001908080601f0160208091040260200160405190810160405280939291908181526020018383808284378201915050505050509190803590602001908201803590602001908080601f0160208091040260200160405190810160405280939291908181526020018383808284378201915050505050509190803590602001908201803590602001908080601f01602080910402602001604051908101604052809392919081815260200183838082843782019150505050505091905050610631565b005b341561036157600080fd5b610369610983565b6040518080602001828103825283818151815260200191508051906020019060200280838360005b838110156103ac578082015181840152602081019050610391565b505050509050019250505060405180910390f35b34156103cb57600080fd5b6103f7600480803573ffffffffffffffffffffffffffffffffffffffff16906020019091905050610a17565b60405180868152602001806020018060200180602001858152602001848103845288818151815260200191508051906020019080838360005b8381101561044b578082015181840152602081019050610430565b50505050905090810190601f1680156104785780820380516001836020036101000a031916815260200191505b50848103835287818151815260200191508051906020019080838360005b838110156104b1578082015181840152602081019050610496565b50505050905090810190601f1680156104de5780820380516001836020036101000a031916815260200191505b50848103825286818151815260200191508051906020019080838360005b838110156105175780820151818401526020810190506104fc565b50505050905090810190601f1680156105445780820380516001836020036101000a031916815260200191505b509850505050505050505060405180910390f35b600260009054906101000a900473ffffffffffffffffffffffffffffffffffffffff1673ffffffffffffffffffffffffffffffffffffffff163373ffffffffffffffffffffffffffffffffffffffff1614156105e957600260009054906101000a900473ffffffffffffffffffffffffffffffffffffffff1673ffffffffffffffffffffffffffffffffffffffff16ff5b565b60006020528060005260406000206000915090508060000154908060010190806002019080600301549080600401908060050160009054906101000a900460ff16905086565b60008066038d7ea4c68000341015151561064a57600080fd5b6000803373ffffffffffffffffffffffffffffffffffffffff1673ffffffffffffffffffffffffffffffffffffffff16815260200190815260200160002060050160009054906101000a900460ff161515156106a557600080fd5b339150346000808473ffffffffffffffffffffffffffffffffffffffff1673ffffffffffffffffffffffffffffffffffffffff16815260200190815260200160002060000181905550846000808473ffffffffffffffffffffffffffffffffffffffff1673ffffffffffffffffffffffffffffffffffffffff1681526020019081526020016000206001019080519060200190610743929190610dbb565b50836000808473ffffffffffffffffffffffffffffffffffffffff1673ffffffffffffffffffffffffffffffffffffffff1681526020019081526020016000206002019080519060200190610799929190610dbb565b50826000808473ffffffffffffffffffffffffffffffffffffffff1673ffffffffffffffffffffffffffffffffffffffff16815260200190815260200160002060040190805190602001906107ef929190610dbb565b50436000808473ffffffffffffffffffffffffffffffffffffffff1673ffffffffffffffffffffffffffffffffffffffff1681526020019081526020016000206003018190555060016000808473ffffffffffffffffffffffffffffffffffffffff1673ffffffffffffffffffffffffffffffffffffffff16815260200190815260200160002060050160006101000a81548160ff021916908315150217905550600180548060010182816108a49190610e3b565b9160005260206000209001600084909190916101000a81548173ffffffffffffffffffffffffffffffffffffffff021916908373ffffffffffffffffffffffffffffffffffffffff160217905550503090506004548173ffffffffffffffffffffffffffffffffffffffff1631111561097c57600260009054906101000a900473ffffffffffffffffffffffffffffffffffffffff1673ffffffffffffffffffffffffffffffffffffffff166108fc6004549081150290604051600060405180830381858888f19350505050151561097b57600080fd5b5b5050505050565b61098b610e67565b6001805480602002602001604051908101604052809291908181526020018280548015610a0d57602002820191906000526020600020905b8160009054906101000a900473ffffffffffffffffffffffffffffffffffffffff1673ffffffffffffffffffffffffffffffffffffffff16815260200190600101908083116109c3575b5050505050905090565b6000610a21610e7b565b610a29610e7b565b610a31610e7b565b60008060008773ffffffffffffffffffffffffffffffffffffffff1673ffffffffffffffffffffffffffffffffffffffff16815260200190815260200160002060050160009054906101000a900460ff1615610db1576000808773ffffffffffffffffffffffffffffffffffffffff1673ffffffffffffffffffffffffffffffffffffffff168152602001908152602001600020600001546000808873ffffffffffffffffffffffffffffffffffffffff1673ffffffffffffffffffffffffffffffffffffffff1681526020019081526020016000206001016000808973ffffffffffffffffffffffffffffffffffffffff1673ffffffffffffffffffffffffffffffffffffffff1681526020019081526020016000206002016000808a73ffffffffffffffffffffffffffffffffffffffff1673ffffffffffffffffffffffffffffffffffffffff1681526020019081526020016000206004016000808b73ffffffffffffffffffffffffffffffffffffffff1673ffffffffffffffffffffffffffffffffffffffff16815260200190815260200160002060030154838054600181600116156101000203166002900480601f016020809104026020016040519081016040528092919081815260200182805460018160011615610100020316600290048015610c635780601f10610c3857610100808354040283529160200191610c63565b820191906000526020600020905b815481529060010190602001808311610c4657829003601f168201915b50505050509350828054600181600116156101000203166002900480601f016020809104026020016040519081016040528092919081815260200182805460018160011615610100020316600290048015610cff5780601f10610cd457610100808354040283529160200191610cff565b820191906000526020600020905b815481529060010190602001808311610ce257829003601f168201915b50505050509250818054600181600116156101000203166002900480601f016020809104026020016040519081016040528092919081815260200182805460018160011615610100020316600290048015610d9b5780601f10610d7057610100808354040283529160200191610d9b565b820191906000526020600020905b815481529060010190602001808311610d7e57829003601f168201915b5050505050915094509450945094509450610db2565b5b91939590929450565b828054600181600116156101000203166002900490600052602060002090601f016020900481019282601f10610dfc57805160ff1916838001178555610e2a565b82800160010185558215610e2a579182015b82811115610e29578251825591602001919060010190610e0e565b5b509050610e379190610e8f565b5090565b815481835581811511610e6257818360005260206000209182019101610e619190610e8f565b5b505050565b602060405190810160405280600081525090565b602060405190810160405280600081525090565b610eb191905b80821115610ead576000816000905550600101610e95565b5090565b905600a165627a7a72305820de36cab32d012526921d87a8c1f33f3198f0030d77a86bda5f139e79976ea9790029",
  "source": "pragma solidity ^0.4.10;\r\n\r\ncontract MarriageCertificates {\r\n\r\n    struct CertificateStruct {\r\n        uint256 value;\r\n        string names;\r\n        string partnerDetails;\r\n        uint blockNumber;\r\n        string message;\r\n        bool exists;\r\n    }\r\n\r\n    mapping (address => CertificateStruct) public CertificateStructs;\r\n\r\n    address[] private keys;\r\n    address private owner;\r\n    uint256 private minimumCost = 1 finney;\r\n    uint256 private maxHoldings = 500 finney;\r\n\r\n\r\n    function MarriageCertificates(uint256 _minimumCost, uint256 _maxHoldings) public {\r\n        owner = msg.sender;\r\n        if (_minimumCost > 0) {\r\n            minimumCost = _minimumCost;\r\n        }\r\n        if (_maxHoldings > 0) {\r\n            maxHoldings = _maxHoldings;\r\n        }\r\n    }\r\n\r\n    function getCertificateKeys() public constant returns (address[]) {\r\n        return keys;\r\n    }\r\n\r\n    function createCertificate (\r\n        string names,\r\n        string partnerDetails,\r\n        string message\r\n    ) payable public {\r\n        require(msg.value >= 1 finney);\r\n        require(!CertificateStructs[msg.sender].exists);\r\n\r\n        address key = msg.sender;\r\n\r\n        CertificateStructs[key].value = msg.value;\r\n        CertificateStructs[key].names = names;\r\n        CertificateStructs[key].partnerDetails = partnerDetails;\r\n        CertificateStructs[key].message = message;\r\n        CertificateStructs[key].blockNumber = block.number;\r\n        CertificateStructs[key].exists = true;\r\n        keys.push(key);\r\n\r\n        address contractAddress = this;\r\n        if (contractAddress.balance > maxHoldings) {\r\n            owner.transfer(maxHoldings);\r\n        }\r\n\r\n    }\r\n\r\n    function getCertificate (address key) public constant returns (uint256, string, string, string, uint) {\r\n        if (CertificateStructs[key].exists) {\r\n            return (\r\n                CertificateStructs[key].value,\r\n                CertificateStructs[key].names,\r\n                CertificateStructs[key].partnerDetails,\r\n                CertificateStructs[key].message,\r\n                CertificateStructs[key].blockNumber\r\n            );\r\n        }\r\n    }\r\n\r\n    function kill() public { \r\n        if (msg.sender == owner) {\r\n            selfdestruct(owner);\r\n        }\r\n    }\r\n\r\n    function() public payable {}\r\n}",
  "sourcePath": "C:\\Users\\Nic\\Documents\\dapps\\ball-and-blockchain\\contracts\\MarriageCertificates.sol",
  "compiler": {
    "name": "solc",
    "version": "0.4.19+commit.c4cbbb05.Emscripten.clang"
  },
  "schemaVersion": "2.0.0",
  "updatedAt": "2018-03-25T22:23:02.780Z"
}