{
  "contractName": "MarriageCertificates",
  "abi": [
    {
      "constant": true,
      "inputs": [
        {
          "name": "",
          "type": "address"
        }
      ],
      "name": "CertificateStructs",
      "outputs": [
        {
          "name": "value",
          "type": "uint256"
        },
        {
          "name": "names",
          "type": "string"
        },
        {
          "name": "partnerDetails",
          "type": "string"
        },
        {
          "name": "blockNumber",
          "type": "uint256"
        },
        {
          "name": "message",
          "type": "string"
        },
        {
          "name": "exists",
          "type": "bool"
        }
      ],
      "payable": false,
      "stateMutability": "view",
      "type": "function"
    },
    {
      "inputs": [
        {
          "name": "_minimumCost",
          "type": "uint256"
        },
        {
          "name": "_maxHoldings",
          "type": "uint256"
        }
      ],
      "payable": false,
      "stateMutability": "nonpayable",
      "type": "constructor"
    },
    {
      "payable": true,
      "stateMutability": "payable",
      "type": "fallback"
    },
    {
      "constant": false,
      "inputs": [
        {
          "name": "names",
          "type": "string"
        },
        {
          "name": "partnerDetails",
          "type": "string"
        },
        {
          "name": "message",
          "type": "string"
        }
      ],
      "name": "createCertificate",
      "outputs": [],
      "payable": true,
      "stateMutability": "payable",
      "type": "function"
    },
    {
      "constant": true,
      "inputs": [
        {
          "name": "key",
          "type": "address"
        }
      ],
      "name": "getCertificate",
      "outputs": [
        {
          "name": "",
          "type": "uint256"
        },
        {
          "name": "",
          "type": "string"
        },
        {
          "name": "",
          "type": "string"
        },
        {
          "name": "",
          "type": "string"
        },
        {
          "name": "",
          "type": "uint256"
        }
      ],
      "payable": false,
      "stateMutability": "view",
      "type": "function"
    },
    {
      "constant": false,
      "inputs": [],
      "name": "kill",
      "outputs": [],
      "payable": false,
      "stateMutability": "nonpayable",
      "type": "function"
    }
  ],
  "bytecode": "0x606060405266038d7ea4c680006002556702c68af0bb140000600355341561002657600080fd5b604051604080610df38339810160405280805190602001909190805190602001909190505033600160006101000a81548173ffffffffffffffffffffffffffffffffffffffff021916908373ffffffffffffffffffffffffffffffffffffffff160217905550600082111561009d57816002819055505b60008111156100ae57806003819055505b5050610d34806100bf6000396000f300606060405260043610610062576000357c0100000000000000000000000000000000000000000000000000000000900463ffffffff16806341c0e1b51461006457806355fd5e5714610079578063ac778b8f14610273578063fd531e931461034b575b005b341561006f57600080fd5b6100776104e3565b005b341561008457600080fd5b6100b0600480803573ffffffffffffffffffffffffffffffffffffffff16906020019091905050610576565b60405180878152602001806020018060200186815260200180602001851515151581526020018481038452898181546001816001161561010002031660029004815260200191508054600181600116156101000203166002900480156101575780601f1061012c57610100808354040283529160200191610157565b820191906000526020600020905b81548152906001019060200180831161013a57829003601f168201915b50508481038352888181546001816001161561010002031660029004815260200191508054600181600116156101000203166002900480156101da5780601f106101af576101008083540402835291602001916101da565b820191906000526020600020905b8154815290600101906020018083116101bd57829003601f168201915b505084810382528681815460018160011615610100020316600290048152602001915080546001816001161561010002031660029004801561025d5780601f106102325761010080835404028352916020019161025d565b820191906000526020600020905b81548152906001019060200180831161024057829003601f168201915b5050995050505050505050505060405180910390f35b610349600480803590602001908201803590602001908080601f0160208091040260200160405190810160405280939291908181526020018383808284378201915050505050509190803590602001908201803590602001908080601f0160208091040260200160405190810160405280939291908181526020018383808284378201915050505050509190803590602001908201803590602001908080601f016020809104026020016040519081016040528093929190818152602001838380828437820191505050505050919050506105bc565b005b341561035657600080fd5b610382600480803573ffffffffffffffffffffffffffffffffffffffff169060200190919050506108ab565b60405180868152602001806020018060200180602001858152602001848103845288818151815260200191508051906020019080838360005b838110156103d65780820151818401526020810190506103bb565b50505050905090810190601f1680156104035780820380516001836020036101000a031916815260200191505b50848103835287818151815260200191508051906020019080838360005b8381101561043c578082015181840152602081019050610421565b50505050905090810190601f1680156104695780820380516001836020036101000a031916815260200191505b50848103825286818151815260200191508051906020019080838360005b838110156104a2578082015181840152602081019050610487565b50505050905090810190601f1680156104cf5780820380516001836020036101000a031916815260200191505b509850505050505050505060405180910390f35b600160009054906101000a900473ffffffffffffffffffffffffffffffffffffffff1673ffffffffffffffffffffffffffffffffffffffff163373ffffffffffffffffffffffffffffffffffffffff16141561057457600160009054906101000a900473ffffffffffffffffffffffffffffffffffffffff1673ffffffffffffffffffffffffffffffffffffffff16ff5b565b60006020528060005260406000206000915090508060000154908060010190806002019080600301549080600401908060050160009054906101000a900460ff16905086565b60008066038d7ea4c6800034101515156105d557600080fd5b6000803373ffffffffffffffffffffffffffffffffffffffff1673ffffffffffffffffffffffffffffffffffffffff16815260200190815260200160002060050160009054906101000a900460ff1615151561063057600080fd5b339150346000808473ffffffffffffffffffffffffffffffffffffffff1673ffffffffffffffffffffffffffffffffffffffff16815260200190815260200160002060000181905550846000808473ffffffffffffffffffffffffffffffffffffffff1673ffffffffffffffffffffffffffffffffffffffff16815260200190815260200160002060010190805190602001906106ce929190610c4f565b50836000808473ffffffffffffffffffffffffffffffffffffffff1673ffffffffffffffffffffffffffffffffffffffff1681526020019081526020016000206002019080519060200190610724929190610c4f565b50826000808473ffffffffffffffffffffffffffffffffffffffff1673ffffffffffffffffffffffffffffffffffffffff168152602001908152602001600020600401908051906020019061077a929190610c4f565b50436000808473ffffffffffffffffffffffffffffffffffffffff1673ffffffffffffffffffffffffffffffffffffffff1681526020019081526020016000206003018190555060016000808473ffffffffffffffffffffffffffffffffffffffff1673ffffffffffffffffffffffffffffffffffffffff16815260200190815260200160002060050160006101000a81548160ff0219169083151502179055503090506003548173ffffffffffffffffffffffffffffffffffffffff163111156108a457600160009054906101000a900473ffffffffffffffffffffffffffffffffffffffff1673ffffffffffffffffffffffffffffffffffffffff166108fc6003549081150290604051600060405180830381858888f1935050505015156108a357600080fd5b5b5050505050565b60006108b5610ccf565b6108bd610ccf565b6108c5610ccf565b60008060008773ffffffffffffffffffffffffffffffffffffffff1673ffffffffffffffffffffffffffffffffffffffff16815260200190815260200160002060050160009054906101000a900460ff1615610c45576000808773ffffffffffffffffffffffffffffffffffffffff1673ffffffffffffffffffffffffffffffffffffffff168152602001908152602001600020600001546000808873ffffffffffffffffffffffffffffffffffffffff1673ffffffffffffffffffffffffffffffffffffffff1681526020019081526020016000206001016000808973ffffffffffffffffffffffffffffffffffffffff1673ffffffffffffffffffffffffffffffffffffffff1681526020019081526020016000206002016000808a73ffffffffffffffffffffffffffffffffffffffff1673ffffffffffffffffffffffffffffffffffffffff1681526020019081526020016000206004016000808b73ffffffffffffffffffffffffffffffffffffffff1673ffffffffffffffffffffffffffffffffffffffff16815260200190815260200160002060030154838054600181600116156101000203166002900480601f016020809104026020016040519081016040528092919081815260200182805460018160011615610100020316600290048015610af75780601f10610acc57610100808354040283529160200191610af7565b820191906000526020600020905b815481529060010190602001808311610ada57829003601f168201915b50505050509350828054600181600116156101000203166002900480601f016020809104026020016040519081016040528092919081815260200182805460018160011615610100020316600290048015610b935780601f10610b6857610100808354040283529160200191610b93565b820191906000526020600020905b815481529060010190602001808311610b7657829003601f168201915b50505050509250818054600181600116156101000203166002900480601f016020809104026020016040519081016040528092919081815260200182805460018160011615610100020316600290048015610c2f5780601f10610c0457610100808354040283529160200191610c2f565b820191906000526020600020905b815481529060010190602001808311610c1257829003601f168201915b5050505050915094509450945094509450610c46565b5b91939590929450565b828054600181600116156101000203166002900490600052602060002090601f016020900481019282601f10610c9057805160ff1916838001178555610cbe565b82800160010185558215610cbe579182015b82811115610cbd578251825591602001919060010190610ca2565b5b509050610ccb9190610ce3565b5090565b602060405190810160405280600081525090565b610d0591905b80821115610d01576000816000905550600101610ce9565b5090565b905600a165627a7a72305820ad3125fd2549cd63c28ee361f1a145fd6717464a5499817185efe6e9805d17680029",
  "source": "pragma solidity ^0.4.10;\r\n\r\ncontract MarriageCertificates {\r\n\r\n    struct CertificateStruct {\r\n        uint256 value;\r\n        string names;\r\n        string partnerDetails;\r\n        uint blockNumber;\r\n        string message;\r\n        bool exists;\r\n    }\r\n\r\n    mapping (address => CertificateStruct) public CertificateStructs;\r\n\r\n    address private owner;\r\n    uint256 private minimumCost = 1 finney;\r\n    uint256 private maxHoldings = 200 finney;\r\n\r\n\r\n    function MarriageCertificates(uint256 _minimumCost, uint256 _maxHoldings) public {\r\n        owner = msg.sender;\r\n        if (_minimumCost > 0) {\r\n            minimumCost = _minimumCost;\r\n        }\r\n        if (_maxHoldings > 0) {\r\n            maxHoldings = _maxHoldings;\r\n        }\r\n    }\r\n\r\n    function createCertificate (\r\n        string names,\r\n        string partnerDetails,\r\n        string message\r\n    ) payable public {\r\n        require(msg.value >= 1 finney);\r\n        require(!CertificateStructs[msg.sender].exists);\r\n\r\n        address key = msg.sender;\r\n\r\n        CertificateStructs[key].value = msg.value;\r\n        CertificateStructs[key].names = names;\r\n        CertificateStructs[key].partnerDetails = partnerDetails;\r\n        CertificateStructs[key].message = message;\r\n        CertificateStructs[key].blockNumber = block.number;\r\n        CertificateStructs[key].exists = true;\r\n\r\n        address contractAddress = this;\r\n        if (contractAddress.balance > maxHoldings) {\r\n            owner.transfer(maxHoldings);\r\n        }\r\n\r\n    }\r\n\r\n    function getCertificate (address key) public constant returns (uint256, string, string, string, uint) {\r\n        if (CertificateStructs[key].exists) {\r\n            return (\r\n                CertificateStructs[key].value,\r\n                CertificateStructs[key].names,\r\n                CertificateStructs[key].partnerDetails,\r\n                CertificateStructs[key].message,\r\n                CertificateStructs[key].blockNumber\r\n            );\r\n        }\r\n    }\r\n\r\n    function kill() public { \r\n        if (msg.sender == owner) {\r\n            selfdestruct(owner);\r\n        }\r\n    }\r\n\r\n    function() public payable {}\r\n}",
  "sourcePath": "C:\\Users\\Nic\\Documents\\dapps\\ball-and-blockchain\\contracts\\MarriageCertificates.sol",
  "compiler": {
    "name": "solc",
    "version": "0.4.19+commit.c4cbbb05.Emscripten.clang"
  },
  "schemaVersion": "2.0.0",
  "updatedAt": "2018-03-26T06:44:30.699Z"
}